:1000000002308A00FF2A0000FF00030E8301A500D2
:100010007F08A4000A08AB008A01A40E0408A60009
:100020002008A7002108A8002208A9002308AA0088
:10003000831383128C308400001C20280C183B286A
:100040008C308400801C26288C183D288B1D2A2883
:100050000B183F28260884002708A0002808A100C4
:100060002908A2002A08A3002B088A00250E830075
:10007000FF0E7F0E09008A1198288A1188288A119C
:100080005D280A108A100A11820728340C340134C2
:100090000634453084008313000803195C280230BD
:1000A000A100A001A00B5228A10B51289730A0005D
:1000B000A00B5828800B4F2808000F30C50049209E
:1000C000831686168312861A69282D08B33C0318F6
:1000D000AD0A831606168312061A72282D08143CE0
:1000E000031CAD03831606178312061B7B282E08FC
:1000F0000F3C0318AE0A831686178312861B8428CA
:100100002E08023C031CAE032F140B108A112A2860
:100110000230AF06AF1C9128831605128312051614
:10012000952883160512831205128C108A112A282D
:100130002130B6070318B70A35083702031CAF2869
:10014000031DA628360834020318AF28B701B601EC
:10015000B80A38082E020318AF280130B800370853
:100160003102031CD728031DB928300836020318B2
:10017000D7282F19D6282F15380BC9280830A100E9
:10018000053892006430831692000511831205151C
:10019000D3280830A10005389200C8308316920099
:1001A00005118312051183168C148312DF28831620
:1001B00005118312051183168C1083122F110C1058
:1001C0008A112A280C00D4224D284F1D0001C2227A
:1001D000412A3A00713083168F000F08FF308600E5
:1001E00083120608B9008A11242B440EF039A000AE
:1001F0000F3007052004870000000714FF2800299E
:10020000071008008710AC018B1BAC178B13323022
:10021000C5004920AC1B8B17411C8710411887145F
:100220000000071100000710420EC3000F30C30585
:100230004308C400F52042080F39C300C400F5206C
:1002400008000030831687008312871007110710FB
:10025000AC018B1BAC178B130F30C5004920AC1BB6
:100260008B170130B9003908033C031C45290330C2
:10027000C400F520AC018B1BAC178B130530C500F7
:100280004920AC1B8B17B90A33290230C400F52072
:10029000B9013908033C031C562939084120BA002A
:1002A000C1013A08C2000221B90A49298A11252B45
:1002B0000B108B15FF3003179604C03003138B040B
:1002C0008A11262B3E0B652968294030BF00692919
:1002D000BF0101303D02BF073F088038C000C101A7
:1002E0004008C200022108003C080C3A03197F298B
:1002F000063A03198D29023A031993299829C10155
:100300000130C2000221AC018B1BAC178B130230F1
:10031000C5004920AC1B8B179E290130BD0002305F
:10032000BE0062219E29C1011030C20002219E2917
:100330000130C1003C08C20002219E29080083163A
:1003400003178C170C140000000083120C087F396F
:100350000319E3290313B90003170D080313BA00A7
:1003600003170F080313BB003908BC0074213A08B7
:1003700003178D0003133B0803178F0083168C1798
:100380000C140000000083120C0D0E0D7F390319B0
:10039000E3290313B90003170D080313BA00031769
:1003A0000F080313BB003908BC0074213A08031777
:1003B0008D0003133B0803178F008D0A03198F0A62
:1003C00003139F29031703130800FE3003178D0042
:1003D00083168C130C1483120C080313B900FF301E
:1003E00003178D0083168C130C1483120C0803134F
:1003F000BA003908C83C0318012A5A30B900043041
:10040000BA008A11492B3C08A1013B0203180B2AB0
:100410003B08A000172AA0010830BD00BB0DA00DAD
:100420003C0820020318A000A10DBD0B0E2A0800F5
:1004300021083908BB006430BC0003222008B90041
:1004400021083030031D2B2ABA1C322ABA19322A4D
:100450003A1A20302E2ABA113A123A14A10721086A
:10046000BC0074213908BB000A30BC0003222008FC
:10047000B90021083030031D432ABA19472A3A1C13
:10048000472A3A1A2030A1072108BC0074213030D5
:10049000B9073908BC00742108000730BD000130DD
:1004A000BE0062212D08B9001330BA0018220730AF
:1004B000BD000230BE0062212E08B9001130BA0022
:1004C00018228A11542BFE3003178D0003133908AC
:1004D00003178C0083168C130C15831203130B085F
:1004E000A0008B138316031755308D00AA308D00A2
:1004F0008C148C18792A0C118312031320088B0496
:10050000AC018B1BAC178B130A30C5004920AC1B08
:100510008B17FF3003178D0003133A0803178C0065
:1005200083168C130C15831203130B08A0008B1376
:100530008316031755308D00AA308D008C148C184B
:100540009F2A0C118312031320088B04AC018B1B10
:10055000AC178B130A30C5004920AC1B8B178A11CE
:10056000592BA101A201A001A3013C08031DBB2A34
:100570003B080319D52A1030BD000310B90DBA0D80
:10058000A00DA30D3C082302031DC82A3B0820022E
:10059000031CD12A3B08A002031CA3033C08A302AE
:1005A0000314A10DA20DBD0BBD2A0800EA30BA004C
:1005B0006030B900BC012D08BB00B1222208B50093
:1005C0002108B4003508BA003408B900BC01033072
:1005D000BB00B1222208B1002108B000300834026B
:1005E000B2003508B3003108031C310FB302B70164
:1005F000B6018A115A2B053090008A11602B8401B4
:1006000083131F3083052F14AF14B701B6012F11C8
:1006100003171F109F101F119F1103131F1300308A
:1006200003179E0099019A0183169E0183129B0174
:1006300003138D12AC018B1BAC178B136430C500F8
:100640004920AC1B8B17EA2821295829E2300317CF
:100650008D0000308F0003139F210130BD00BE00CC
:100660006221E33003178D0000308F0003139F21B8
:100670000130BD000230BE006221E73003178D005B
:1006800000308F0003139F212D08B9002E08BA00F7
:10069000E5292F142F1C692B0317960183160313CA
:1006A0000C108C1083124D2A2D08B9002E08BA00A8
:1006B000632AD62A2F10B701B6010130B800FB2AF1
:1006C0000C1083160C1483128B15FF30031796043D
:0606D00003134A2B630036
:02400E00E43795
:00000001FF
;PIC16F690
;CRC=6F63  CREATED="29-okt.-10 13:26"
